:100000000C94DB000C9473060C944C060C940301C6
:100010000C9403010C9403010C9403010C94030150
:100020000C9403010C9403010C9403010C94030140
:100030000C9403010C9403010C9403010C94030130
:100040000C9402060C9403010C94C0060C949A06BE
:100050000C9403010C9403010C9403010C94030110
:100060000C9403010C94030100407A10F35A00A091
:10007000724E18090010A5D4E80000E87648170071
:1000800000E40B54020000CA9A3B000000E1F505B1
:10009000000080969800000040420F000000A086FB
:1000A00001000000102700000000E803000000002D
:1000B0006400000000000A000000000001000000D1
:1000C00000002C76D888DC674F0823DFC1DFAE59EB
:1000D000E1B1B796E5E3E453C63AE651997696E87E
:1000E000E6C28426EB898C9B62ED407C6FFCEFBC02
:1000F0009C9F40F2BAA56FA5F490055A2AF75C932D
:100100006B6CF9676DC11BFCE0E40D47FEF520E662
:10011000B500D0ED902E0300943577050080841E45
:10012000080000204E0A000000C80C333333330FA0
:10013000986E12831141EF8D2114893BE65516CF3D
:10014000FEE6DB18D1844B381BF77C1D901DA4BB49
:10015000E424203284725E228100C9F124ECA1E5FE
:100160003D2700000000240027002A0000000000B6
:10017000250028002B0004040404040404040202E3
:100180000202020203030303030301020408102016
:100190004080010204081020010204081020000021
:1001A0000008000201000003040700000000000036
:1001B0000000F206E80A11241FBECFEFD8E0DEBF30
:1001C000CDBF22E0A0E5B1E001C01D92A838B20782
:1001D000E1F711E0A0E0B1E0E0EAF3E202C005904F
:1001E0000D92A035B107D9F710E0CAEDD0E004C0F8
:1001F0002197FE010E94D20EC93DD107C9F70E9486
:10020000BA070C94C3110C940000E6EFF1E0858D61
:100210008F5F858F08958230C8F4E82FF0E0EE0FED
:10022000FF1FE050FF4F71836083813041F0809168
:1002300069008C7F826080936900E89A08958091BC
:100240006900837F886080936900E99A0895DC01E2
:10025000ED91FC910190F081E02D60E20994089508
:1002600090E0FC01E256FE4F3491FC01E657FE4F50
:100270002491FC01EA58FE4FE491EE2309F43BC0BF
:10028000332339F1333091F038F43130A9F0323082
:1002900001F584B58F7D12C0373091F03830A1F070
:1002A0003430B9F4809180008F7D03C0809180004C
:1002B0008F77809380000DC084B58F7784BD09C08F
:1002C0008091B0008F7703C08091B0008F7D8093C4
:1002D000B000F0E0EE0FFF1FE459FE4FA591B4917E
:1002E0008FB7F894EC91611103C020952E2301C0C3
:1002F0002E2B2C938FBF0895CF93DF9390E0FC01BA
:10030000E657FE4F2491FC01EA58FE4F8491882362
:1003100061F190E0880F991FFC01EE59FE4FC591E5
:10032000D491FC01E459FE4FA591B491611109C02B
:100330009FB7F8948881209582238883EC912E239F
:100340000BC0623061F49FB7F8943881822F80959A
:1003500083238883EC912E2B2C939FBF06C08FB7ED
:10036000F894E8812E2B28838FBFDF91CF910895D9
:100370003FB7F8948091550190915601A091570193
:10038000B091580126B5A89B05C02F3F19F00196E2
:10039000A11DB11D3FBFBA2FA92F982F8827820F0B
:1003A000911DA11DB11DBC01CD0142E0660F771F5B
:1003B000881F991F4A95D1F708958F929F92AF9207
:1003C000BF92CF92DF92EF92FF920E94B8014B0151
:1003D0005C0184E6C82ED12CE12CF12C0E94B801DE
:1003E000DC01CB0188199909AA09BB09883E934011
:1003F000A105B10558F021E0C21AD108E108F108C1
:1004000088EE880E83E0981EA11CB11CC114D10493
:10041000E104F10419F7FF90EF90DF90CF90BF90C7
:10042000AF909F908F9008952FB7F89460915101ED
:100430007091520180915301909154012FBF089502
:100440000895DC01ED91FC91DB0114964D915C91D6
:1004500015976D917C910280F381E02D0994CF92E4
:10046000DF92EF92FF920F931F93CF93DF936C0174
:100470007A018B01C0E0D0E0CE15DF0589F0D8010C
:100480006D918D01D601ED91FC910190F081E02DEF
:10049000C6010995892B11F47E0102C02196ECCF8B
:1004A000C701DF91CF911F910F91FF90EF90DF90E7
:1004B000CF900895FC01538D448D252F30E0842F7B
:1004C00090E0821B930B541710F0CF96089501977C
:1004D0000895FC01918D828D981761F0828DDF0166
:1004E000A80FB11D5D968C91928D9F5F9F73928F27
:1004F00090E008958FEF9FEF0895FC01918D828D1C
:10050000981731F0828DE80FF11D858D90E00895E8
:100510008FEF9FEF0895FC01918D228D892F90E040
:10052000805C9F4F821B91098F739927089589E5FD
:1005300091E00E948B0221E0892B09F420E0822FB8
:100540000895FC01848DDF01A80FB11DA35ABF4F90
:100550002C91848D90E001968F739927848FA689C2
:10056000B7892C93A089B1898C9180648C93938DE9
:10057000848D981306C00288F389E02D80818F7DD9
:1005800080830895EF92FF920F931F93CF93DF9391
:10059000EC0181E0888F9B8D8C8D981305C0E889D4
:1005A000F989808185FD24C0F62E0B8D10E00F5F48
:1005B0001F4F0F731127E02E8C8DE8120CC00FB661
:1005C00007FCFACFE889F989808185FFF5CFCE0154
:1005D0000E94A102F1CF8B8DFE01E80FF11DE35ABD
:1005E000FF4FF0820B8FEA89FB898081806207C010
:1005F000EE89FF896083E889F9898081806480833E
:1006000081E090E0DF91CF911F910F91FF90EF90EB
:100610000895CF93DF93EC01888D8823C9F0EA8990
:10062000FB89808185FD05C0A889B9898C9186FDEB
:100630000FC00FB607FCF5CF808185FFF2CFA889E8
:10064000B9898C9185FFEDCFCE010E94A102E7CF41
:10065000DF91CF91089580E090E0892B29F00E94EE
:10066000970281110C9400000895CF93DF93EC0161
:1006700060E08E810E94300161E08E810E94300135
:1006800060E08E810E9430018BE891E00197F1F7E4
:10069000DF91CF910895CF92DF92EF92FF920F9367
:1006A0001F93CF93DF937C016C0187E0C80ED11CB0
:1006B000C0E0D0E0062F10E0B8010C2E02C0759506
:1006C00067950A94E2F76170F60181916F010E94CB
:1006D00030012196C430D10579F7C701DF91CF9160
:1006E0001F910F91FF90EF90DF90CF900C94350306
:1006F000CF92DF92EF92FF920F931F93CF93DF93EE
:10070000EC01F62E642F8C810E9430018D818F3F89
:1007100019F060E00E9430018F850F2D10E084FFFA
:1007200025C06E0187E0C80ED11CE12CF12CB80168
:100730000E2C02C0759567950A94E2F76170F60178
:1007400081916F010E943001FFEFEF1AFF0A88E0EC
:10075000E816F10461F7CE01DF91CF911F910F915F
:10076000FF90EF90DF90CF900C943503B80184E0B8
:10077000759567958A95E1F7CE010E944B036F2D21
:10078000CE01DF91CF911F910F91FF90EF90DF90FD
:10079000CF900C944B0341E00E94780381E090E0FD
:1007A000089540E00C947803643008F063E0FC01A5
:1007B0002389621710F06FEF620FFC01E60FF11D45
:1007C000648960680C94D10361E00E94D1038BE3DB
:1007D0009FE10197F1F70895EF92FF920F931F9316
:1007E000CF93DF93EC01423018F08F8588608F87BC
:1007F0004B8B1C8A80E48D8B6E8B70E0605C7F4F2E
:100800006F8B61E08C810E947C018D818F3F19F09C
:1008100061E00E947C0161E08E810E947C017E018A
:1008200087E0E80EF11C00E010E08F8584FD03C036
:1008300084E090E002C088E090E0081719074CF4CB
:1008400061E0F70181917F010E947C010F5F1F4FE2
:10085000ECCF8BE39DE00197F1F760E08C810E9483
:10086000300160E08E810E9430018D818F3F19F050
:1008700060E00E9430016F8564FD1DC063E0CE0121
:100880000E944B030BE416E4C8010197F1F763E003
:10089000CE010E944B03C8010197F1F763E0CE013E
:1008A0000E944B0383E592E00197F1F762E0CE01ED
:1008B0000E944B0316C06062CE010E94D1038BE4FC
:1008C00096E40197F1F76F856062CE010E94D10333
:1008D00083E592E00197F1F76F856062CE010E9497
:1008E000D1036F856062CE010E94D10384E0888BC2
:1008F0006CE0CE010E94D103CE010E94E40382E0AD
:10090000898B66E0CE01DF91CF911F910F91FF900F
:10091000EF900C94D103089580E090E00895009743
:1009200069F0FC0101900020E9F73197AF01481B05
:10093000590BBC018CE692E00C942F0280E090E011
:100940000895CF93DF93EC0180916202909163024E
:100950000097C9F0688179816115710591F0409126
:100960006402509165022C813D814217530748F083
:100970000E94BC118C819D819093670280936602D6
:1009800018C00E944C1088819981909363028093D3
:1009900062028A819B8190936502809364028C81BC
:1009A0009D819093670280936602198218821B8250
:1009B0001A821D821C82DF91CF910895CF93DF931D
:1009C000EC0188819981009711F00E944C101982E6
:1009D00018821D821C821B821A82DF91CF9108959A
:1009E000FC01808191810C944C100E94AE110F93F8
:1009F0001F93CF93DF93EC0188819981009729F0B1
:100A00002A813B812617370788F48B016F5F7F4F60
:100A10000E94E410009761F0998388831B830A8306
:100A20002C813D81232B11F4FC01108281E001C057
:100A300080E0DF91CF911F910F910895EF92FF9287
:100A40000F931F93CF93DF93EC01FB01848195817A
:100A5000E080F1800C811D81E114F104B1F0009778
:100A6000B9F0080F191FB801CE010E94F7048823BE
:100A700061F0288139818C819D81B701820F931F9C
:100A80000E94BC111D830C8303C0CE010E94DE04B2
:100A9000CE01DF91CF911F910F91FF90EF900895BC
:100AA0000F931F93CF93DF93EC010C811D810D5F9A
:100AB0001F4FB8010E94F704882369F0288139810B
:100AC0008C819D8168E271E0820F931F0E94BC11AE
:100AD0001D830C8303C0CE010E94DE04CE01DF9192
:100AE000CF911F910F910895EF92FF920F931F9353
:100AF000CF93DF93EC017B018A01BA010E94F704D6
:100B0000811104C0CE010E94DE0407C01D830C8346
:100B1000B701888199810E94BC11CE01DF91CF91EC
:100B20001F910F91FF90EF900895FB01DC0111964A
:100B30001C921E9213961C921E92129715961C924E
:100B40001E9214978617970749F06081718161158D
:100B5000710521F0448155810C9474050895FC01C0
:100B6000118210821382128215821482611571051E
:100B700051F0FB0101900020E9F73197AF01461BCE
:100B8000570B0C9474050895EF92FF920F931F93E7
:100B9000CF93DF93CDB7DEB7A1970FB6F894DEBF42
:100BA0000FBECDBF7C01CB01BA01F70111821082CB
:100BB000138212821582148242E0420F8E010F5F6F
:100BC0001F4F0E94F80A009769F0FC010190002075
:100BD000E9F73197AF01481B590BBC01C7010E94CF
:100BE000740503C0C7010E94DE04A1960FB6F894F5
:100BF000DEBF0FBECDBFDF91CF911F910F91FF9050
:100C0000EF9008951F920F920FB60F9211242F9319
:100C10003F938F939F93AF93BF9380915101909196
:100C20005201A0915301B09154013091500123E041
:100C3000230F2D3720F40196A11DB11D05C026E814
:100C4000230F0296A11DB11D2093500180935101E5
:100C500090935201A0935301B09354018091550198
:100C600090915601A0915701B09158010196A11D94
:100C7000B11D8093550190935601A0935701B093F5
:100C80005801BF91AF919F918F913F912F910F90FC
:100C90000FBE0F901F9018951F920F920FB60F92D4
:100CA00011242F933F934F935F936F937F938F9371
:100CB0009F93AF93BF93EF93FF93E0910201F09165
:100CC00003010995FF91EF91BF91AF919F918F9192
:100CD0007F916F915F914F913F912F910F900FBE38
:100CE0000F901F9018951F920F920FB60F9211241C
:100CF0002F933F934F935F936F937F938F939F9324
:100D0000AF93BF93EF93FF93E0910001F091010146
:100D10000995FF91EF91BF91AF919F918F917F9135
:100D20006F915F914F913F912F910F900FBE0F9058
:100D30001F9018951F920F920FB60F9211242F93A8
:100D40003F934F935F936F937F938F939F93AF9353
:100D5000BF93EF93FF9389E591E00E94A102FF9179
:100D6000EF91BF91AF919F918F917F916F915F9123
:100D70004F913F912F910F900FBE0F901F9018959C
:100D80001F920F920FB60F9211242F938F939F9360
:100D9000EF93FF93E0916901F0916A018081E09106
:100DA0006F01F091700182FD12C0908180917201FB
:100DB0008F5F8F7320917301821751F0E091720160
:100DC000F0E0E75AFE4F958F8093720101C0808159
:100DD000FF91EF919F918F912F910F900FBE0F90E8
:100DE0001F901895EF92FF920F931F93CF93DF936D
:100DF000E9E5F1E01382128288EE93E0A0E0B0E032
:100E000084839583A683B7838EE091E0918380836A
:100E100085EC90E09587848784EC90E097878687BF
:100E200080EC90E0918B808B81EC90E0938B828BB7
:100E300082EC90E0958B848B86EC90E0978B868B90
:100E4000118E128E138E148E0CE612E0F8011382AE
:100E5000128280E291E09183808388E084838FEF27
:100E6000858389E0868384E0F82EF78285E0808799
:100E700086E0818787E0828713861486158616862A
:100E8000178641E060E1C8010E94EC03C6EFD1E0A3
:100E90001E821F82188680E090E0A0E9B0E4898776
:100EA0009A87AB87BC871D861E861F86188A198A7B
:100EB0001A8A1B8A1C8A1D8A1E8A1F8A188E198EFE
:100EC0001A8E1B8E1C8E1D8E6CE271E080E592E006
:100ED0000E94AF0564E371E086E592E00E94AF05F1
:100EE0006BE371E08CE592E00E94AF0569E471E08C
:100EF00082E692E00E94AF05EE24E394E0926B025A
:100F000085E091E09983888382E08A831B8260E098
:100F10000E947C0161E08A810E94300168817981B0
:100F20008B810E940B011D830C8344E064E1C801A6
:100F30000E94EC038C819D810E94E403EE8284E197
:100F40008887FF8290915402F82FF91BF093680272
:100F500090915A02282F291B2093690290916002D8
:100F6000891B80936A02DF91CF911F910F91FF90AF
:100F7000EF900895CF93DF93CDB7DEB76E970FB69E
:100F8000F894DEBF0FBECDBF789484B5826084BD77
:100F900084B5816084BD85B5826085BD85B581607D
:100FA00085BD80916E00816080936E0010928100FB
:100FB00080918100826080938100809181008160B6
:100FC0008093810080918000816080938000809177
:100FD000B10084608093B1008091B0008160809303
:100FE000B00080917A00846080937A0080917A00CA
:100FF000826080937A0080917A00816080937A0089
:1010000080917A00806880937A001092C100E0910C
:101010006901F0916A0182E08083E0916501F091BD
:1010200066011082E0916701F091680183E380839B
:1010300010927101E0916D01F0916E0186E0808364
:10104000E0916B01F0916C01808180618083E0917F
:101050006B01F0916C01808188608083E0916B016D
:10106000F0916C01808180688083E0916B01F09148
:101070006C0180818F7D808344E064E18CE692E0A6
:101080000E94EC038CE692E00E94E40360E08CE6B0
:1010900092E00E94D4038FE391E00E948F040E94AB
:1010A000DD0100E212E098EEC92E93E0D92EE12C8A
:1010B000F12C0E94140240900F0250901002609098
:1010C000110270901202DC01CB0184199509A60966
:1010D000B709893E9340A105B10508F4BBC1E09171
:1010E000F901E23060F4E13011F0E89801C0E998CC
:1010F000F0E0EE0FFF1FE050FF4F118300830E94CE
:101100001402B090130240900F02509010026090B1
:1011100011027090120264197509860997090E94DC
:101120007E0D9B01AC0160E070E08AE794E40E94D0
:10113000450F2B013C016B2D70E080E090E00E9498
:10114000800D9B01AC01C301B2010E94BB0D209137
:10115000FF013091000240910102509102020E9471
:10116000450F6093030270930402809305029093ED
:10117000060220E030E040E752E40E94450F20E004
:1011800030E04AE754E40E94BB0D9B01AC01609340
:101190000702709308028093090290930A026091FB
:1011A0000B0270910C0280910D0290910E020E9430
:1011B000D90E60930B0270930C0280930D029093F2
:1011C0000E020E94140260930F027093100280932B
:1011D000110290931202109213028091FC01882355
:1011E00009F430C180916B02882309F471C0109218
:1011F0006B028091FA019091FB010E94E4038091BF
:10120000FD018823F9F060E08091FA019091FB01E3
:101210000E94D403A12CB12C20916802022E000C54
:10122000330B8091FA019091FB01A216B30634F4BE
:101230000E9427018FEFA81AB80AEECF60E572E08E
:101240000E9421028091FD018230F8F061E08091DE
:10125000FA019091FB010E94D403A12CB12C2091A2
:101260006902022E000C330B8091FA019091FB0170
:10127000A216B30634F40E9427012FEFA21AB20A75
:10128000EECF66E572E00E9421028091FD0183307D
:1012900008F4D8C062E08091FA019091FB010E94AD
:1012A000D403A12CB12C20916A02022E000C330B26
:1012B0008091FA019091FB01A216B30634F40E94CA
:1012C00027018FEFA81AB80AEECF6CE572E0B8C01C
:1012D0008091FD018823D1F160E08091FA01909125
:1012E000FB010E94D40340910702509108026091D3
:1012F000090270910A0222E0CE0101960E94C40503
:10130000CE0101960E94A104CE0101960E94F00434
:10131000A12CB12C20916802022E000C330B80917D
:10132000660290916702281B390B8091FA01909117
:10133000FB01A216B30630F40E9427012FEFA21A78
:10134000B20AE8CF62E672E00E9421028091FD01BC
:101350008230D0F161E08091FA019091FB010E940E
:10136000D4034091030250910402609105027091F0
:10137000060222E0CE0101960E94C405CE0101962C
:101380000E94A104CE0101960E94F004A12CB12C70
:1013900020916902022E000C330B8091660290911D
:1013A0006702281B390B8091FA019091FB01A2166C
:1013B000B30630F40E9427018FEFA81AB80AE8CFCD
:1013C00062E672E00E9421028091FD018330D0F13B
:1013D00062E08091FA019091FB010E94D403409158
:1013E0000B0250910C0260910D0270910E0222E0EE
:1013F000CE0101960E94C405CE0101960E94A1046F
:10140000CE0101960E94F004A12CB12C40916A02F9
:10141000042E000C550B8091660290916702481BC8
:10142000590B8091FA019091FB01A416B50630F496
:101430000E9427012FEFA21AB20AE8CF62E672E0FB
:101440000E9421026091F6017091F7018091F901EB
:101450000E940B014091070250910802609109021D
:1014600070910A0222E0CE0101960E94C405BE01DD
:101470006F5F7F4FCE0107960E94950560E572E091
:10148000CE0107960E941E05BC01CE0149960E941E
:101490009505CE0107960E94F004CE0101960E94A8
:1014A000F004409103025091040260910502709192
:1014B000060222E0CE0101960E94C405BE016F5FC4
:1014C0007F4FCE0107960E94950566E572E0CE013A
:1014D00007960E941E05BC01CE0143960E94950509
:1014E000CE0107960E94F004CE0101960E94F004FE
:1014F00040910B0250910C0260910D0270910E020E
:1015000022E0CE0101960E94C405BE016F5F7F4FAD
:10151000CE0107960E9495056CE572E0CE01079614
:101520000E941E05BC01CE010D960E949505CE01BC
:1015300007960E94F004CE0101960E94F004BE01BD
:10154000675E7F4FCE0101960E949505CE01019600
:101550000E945005BE016D5E7F4F0E941E050E94D5
:101560005005BE01635F7F4F0E941E05BC0189E5E7
:1015700091E00E94210242E050E067E471E089E5D9
:1015800091E00E942F02CE0101960E94F004CE014C
:101590000D960E94F004CE0143960E94F004CE0105
:1015A00049960E94F00464E08CE692E00E94D40325
:1015B0000E941402A70196010E94B00EC901865B29
:1015C0009E4F0E948F040E94DD010E942B0371CD6B
:1015D00082E692E00E94F0048CE592E00E94F00422
:1015E00086E592E00E94F00480E592E00C94F0041D
:1015F000EF920F931F93CF93DF93E80147FD02C053
:1016000034E001C034E1E42F440FFF0BF7FF03C0C7
:10161000F195E195F109E32E022F2E2FAE010E94E4
:10162000180BCE01DF91CF911F910F91EF9008958C
:101630004F925F926F927F929F92AF92BF92CF92A2
:10164000DF92EF92FF920F931F93CF93DF93CDB76B
:10165000DEB729970FB6F894DEBF0FBECDBF6A0183
:10166000122FB02E2BE3201720F0FF24F394F00E5E
:1016700002C0BCE3FB2E0F2D27E0AE014F5F5F4F92
:101680000E94A60CAC018981982F9970913031F09D
:10169000E1FC06C0E0FE06C090E205C09DE203C08A
:1016A0009BE201C090E0EE2DE07183FF3CC0911100
:1016B00002C083E001C084E0811718F4212F281BA9
:1016C00001C020E0E1110BC0F601822F30E2882337
:1016D00019F031938150FBCFC20ED11C20E0992329
:1016E00029F0D6019C93F60131966F01C60103964D
:1016F000E2FE0AC03EE4D6013C9341E411964C93CD
:10170000119712963C9306C03EE6F601308341E6FF
:1017100041833283FC01322F40E2332309F442C07B
:1017200041933150FACF82FF44C0911102C083E04F
:1017300001C084E0811718F4212F281B01C020E08C
:10174000E1110BC0F601822F30E2882319F03193AA
:101750008150FBCFC20ED11C20E0992329F0D60185
:101760009C93F60131966F01C6010396E2FE0BC011
:1017700039E4D6013C933EE411963C93119736E44C
:1017800012963C9307C039E6F60130833EE631837A
:1017900036E63283FC01322F40E2332319F04193C5
:1017A0003150FBCFFC01E20FF11D10828EEF9FEF55
:1017B000B7C0F1E0911101C0F0E06F2F70E0141696
:1017C000150624F49A012F5F3F4F02C021E030E05C
:1017D000260F371FBB2029F06B2D70E06F5F7F4F06
:1017E00002C060E070E0260F371F612F70E02617FF
:1017F00037071CF4121B212F01C020E03E2D387149
:1018000059F4D601322F60E2332319F06D93315031
:10181000FBCFC20ED11C20E0FF2331F0D6019C93F8
:10182000B6016F5F7F4F6B01E1110BC0F601922F84
:1018300030E3992319F031939150FBCFC20ED11CA4
:1018400020E09F2D940F3A81782F7071A72E84FF8E
:1018500003C0313309F49150191624F4993018F06B
:1018600098E001C091E0E42F852F57FF02C0E0E02F
:1018700080E06E2F782FE0E0F0E0AEE29A2E3A01A1
:10188000691A71082A01461A570A0B2D10E01195A2
:10189000019511096F3F8FEF780729F4D6019C92CB
:1018A000C60101966C014617570784F06616770645
:1018B0006CF47F01E40CF51CA1E0B0E0AC0FBD1F9F
:1018C000EA0EFB1ED7011196BC9002C090E3B92E20
:1018D000615071093196C60101967C01601771074C
:1018E00024F0D601BC926C01D5CF6417750741F482
:1018F000363320F4353321F4A11002C081E3B82E31
:10190000F601B082F701822F90E2882319F09193BB
:101910008150FBCFF701E20FF11D108280E090E0D3
:1019200029960FB6F894DEBF0FBECDBFDF91CF91E1
:101930001F910F91FF90EF90DF90CF90BF90AF90ED
:101940009F907F906F905F904F900895283008F09F
:1019500027E03327DA01990F311D87FD916000964A
:101960006105710539F432602E5F3D9330E32A95AD
:10197000E1F708959F3F30F080387105610509F067
:101980003C5F3C5F3D93913008F08068911DDF9390
:10199000CF931F930F93FF92EF92192F987F9695F5
:1019A000E92F96959695E90FFF27EE53FF4F99275C
:1019B0003327EE24FF24A701E7010590089407943C
:1019C00028F4360FE71EF81E491F511D660F771FBA
:1019D000881F991F0694A1F70590079428F4E70E35
:1019E000F81E491F561FC11D770F881F991F661FBC
:1019F0000694A1F70590079428F4F80E491F561F86
:101A0000C71FD11D880F991F661F771F0694A1F766
:101A10000590079420F4490F561FC71FD81F990F30
:101A2000661F771F881F0694A9F784911095177079
:101A300041F0D695C79557954795F794E7941A9531
:101A4000C1F7E8E6F0E0689415901591359165913D
:101A5000959105907FE27395E118F10A430B560BBF
:101A6000C90BD009C0F7E10CF11E431F561FC91F57
:101A7000D01D7EF4703311F48A95E6CFE8940150BE
:101A800030F0080F0AF40027021708F4202F2395DE
:101A9000022F7A3328F079E37D932A95E9F710C075
:101AA0007D932A9589F606949795679537951795AE
:101AB0001794E118F10A430B560BC90BD00998F0A3
:101AC00023957E9173957A3308F070E37C9320130D
:101AD000B8F77E9170617D9330F0839571E37D93CB
:101AE00070E32A95E1F71124EF90FF900F911F9179
:101AF000CF91DF91992787FD90950895E89409C0CB
:101B000097FB3EF490958095709561957F4F8F4F30
:101B10009F4F9923A9F0F92F96E9BB279395F69546
:101B2000879577956795B795F111F8CFFAF4BB0FC4
:101B300011F460FF1BC06F5F7F4F8F4F9F4F16C028
:101B4000882311F096E911C0772321F09EE8872FB2
:101B5000762F05C0662371F096E8862F70E060E06E
:101B60002AF09A95660F771F881FDAF7880F9695E7
:101B7000879597F908950E94CE0D0C943F0E0E9410
:101B8000310E38F00E94380E20F0952311F00C949D
:101B9000280E0C942E0E11240C94730E0E94500EDD
:101BA00070F3959FC1F3950F50E0551F629FF001B0
:101BB000729FBB27F00DB11D639FAA27F00DB11DC9
:101BC000AA1F649F6627B00DA11D661F829F222752
:101BD000B00DA11D621F739FB00DA11D621F839FD9
:101BE000A00D611D221F749F3327A00D611D231FAF
:101BF000849F600D211D822F762F6A2F11249F57FD
:101C000050409AF0F1F088234AF0EE0FFF1FBB1FFF
:101C1000661F771F881F91505040A9F79E3F5105BE
:101C200080F00C94280E0C94730E5F3FE4F3983E02
:101C3000D4F3869577956795B795F795E7959F5F68
:101C4000C1F7FE2B880F911D9695879597F90895FA
:101C500097F99F6780E870E060E008959FEF80EC5F
:101C6000089500240A941616170618060906089502
:101C700000240A9412161306140605060895092E68
:101C80000394000C11F4882352F0BB0F40F4BF2BD7
:101C900011F460FF04C06F5F7F4F8F4F9F4F089517
:101CA00057FD9058440F551F59F05F3F71F047950D
:101CB000880F97FB991F61F09F3F79F087950895F2
:101CC000121613061406551FF2CF4695F1DF08C011
:101CD000161617061806991FF1CF8695710561052E
:101CE00008940895E894BB2766277727CB0197F9D6
:101CF00008952F923F924F925F926F927F928F92B0
:101D00009F92AF92BF92CF92DF92EF92FF920F938A
:101D10001F93CF93DF93CDB7DEB7CA1BDB0B0FB694
:101D2000F894DEBF0FBECDBF09942A883988488851
:101D30005F846E847D848C849B84AA84B984C884E7
:101D4000DF80EE80FD800C811B81AA81B981CE0FDE
:101D5000D11D0FB6F894DEBF0FBECDBFED010895C3
:101D6000A1E21A2EAA1BBB1BFD010DC0AA1FBB1F9F
:101D7000EE1FFF1FA217B307E407F50720F0A21B11
:101D8000B30BE40BF50B661F771F881F991F1A947E
:101D900069F760957095809590959B01AC01BD01A8
:101DA000CF010895EE0FFF1F0590F491E02D0994E7
:101DB0005058BB27AA270E94F00E0C943F0E0E9499
:101DC000310E38F00E94380E20F039F49F3F19F49C
:101DD00026F40C942E0E0EF4E095E7FB0C94280EDE
:101DE000E92F0E94500E58F3BA1762077307840751
:101DF000950720F079F4A6F50C94720E0EF4E09598
:101E00000B2EBA2FA02D0B01B90190010C01CA01B4
:101E1000A0011124FF27591B99F0593F50F4503E5F
:101E200068F11A16F040A22F232F342F4427585F51
:101E3000F3CF469537952795A795F0405395C9F769
:101E40007EF41F16BA0B620B730B840BBAF0915021
:101E5000A1F0FF0FBB1F661F771F881FC2F70EC0C0
:101E6000BA0F621F731F841F48F487957795679593
:101E7000B795F7959E3F08F0B0CF9395880F08F07F
:101E80009927EE0F9795879508950E94590F0C9406
:101E90003F0E0E94380E58F00E94310E40F029F497
:101EA0005F3F29F00C94280E51110C94730E0C9482
:101EB0002E0E0E94500E68F39923B1F3552391F32F
:101EC000951B550BBB27AA2762177307840738F0A9
:101ED0009F5F5F4F220F331F441FAA1FA9F335D006
:101EE0000E2E3AF0E0E832D091505040E695001CBA
:101EF000CAF72BD0FE2F29D0660F771F881FBB1F74
:101F0000261737074807AB07B0E809F0BB0B802D51
:101F1000BF01FF2793585F4F3AF09E3F510578F07D
:101F20000C94280E0C94730E5F3FE4F3983ED4F3A8
:101F3000869577956795B795F7959F5FC9F7880F51
:101F4000911D9695879597F90895E1E0660F771FA3
:101F5000881FBB1F621773078407BA0720F0621B34
:101F6000730B840BBA0BEE1F88F7E0950895CF939F
:101F7000DF938230910510F482E090E0E0918602D8
:101F8000F091870220E030E0C0E0D0E0309711F11E
:101F90004081518148175907C0F04817590761F42B
:101FA00082819381209719F09B838A832BC0909321
:101FB00087028093860226C02115310519F0421749
:101FC000530718F49A01BE01DF01EF010280F3818B
:101FD000E02DDCCF2115310509F1281B390B243008
:101FE000310590F412968D919C91139761157105AE
:101FF00021F0FB019383828304C090938702809336
:102000008602FD01329644C0FD01E20FF31F819369
:102010009193225031092D933C933AC02091840230
:1020200030918502232B41F4209106013091070164
:1020300030938502209384022091040130910501A0
:102040002115310541F42DB73EB74091080150915B
:102050000901241B350BE0918402F0918502E217FF
:10206000F307A0F42E1B3F0B2817390778F0AC01BB
:102070004E5F5F4F2417350748F04E0F5F1F509398
:102080008502409384028193919302C0E0E0F0E0E6
:10209000CF01DF91CF9108950F931F93CF93DF93DB
:1020A000009709F48CC0FC013297138212820091D0
:1020B0008602109187020115110581F4208131817A
:1020C000820F931F209184023091850228173907CF
:1020D00079F5F0938502E093840271C0D80140E065
:1020E00050E0AE17BF0750F412962D913C91139714
:1020F000AD012115310509F1D901F3CF9D01DA01B7
:102100003383228360817181860F971F8217930723
:1021100069F4EC0128813981260F371F2E5F3F4F6C
:10212000318320838A819B8193838283452B29F489
:10213000F0938702E093860242C01396FC93EE93DD
:102140001297ED01499159919E01240F351FE21715
:10215000F30771F480819181840F951F0296119687
:102160009C938E938281938113969C938E93129766
:10217000E0E0F0E0D80112968D919C9113970097C2
:1021800019F0F8018C01F6CF8D919C9198012E5F8A
:102190003F4F820F931F20918402309185022817B0
:1021A000390769F4309729F4109287021092860259
:1021B00002C0138212821093850200938402DF9181
:1021C000CF911F910F910895A0E0B0E0EAEEF0E109
:1021D0000C947D0EEC01009721F4CB010E94B70F07
:1021E000B8C0FC01E60FF71F9C0122503109E2172D
:1021F000F30708F4ACC0D9010D911C911197061793
:102200001707B0F00530110508F49FC0C801049706
:102210008617970708F499C002501109061B170B7F
:10222000019311936D937C93CF010E944C108DC04C
:102230005B01A01AB10A4C01800E911EA09186028A
:10224000B091870240E050E0E12CF12C109709F4A6
:102250004AC0A815B905D1F56D907C90119763011E
:1022600082E0C80ED11CCA14DB0480F1A3014A1914
:102270005B096A0182E0C80ED11C1296BC901297CD
:102280001396AC91B5E0CB16D10440F0B282A38393
:1022900051834083D9016D937C930AC00E5F1F4F19
:1022A000C301800F911FF90191838083EB2DFA2FD9
:1022B000E114F10431F0D7011396FC93EE931297D9
:1022C00044C0F0938702E09386023FC08D919C91B9
:1022D00011974817590708F4AC017D0112960D902B
:1022E000BC91A02DB3CF8091840290918502881576
:1022F0009905E1F446175707C8F4809104019091BD
:102300000501009741F48DB79EB7409108015091A7
:102310000901841B950BE817F907C8F4F0938502AF
:10232000E0938402F901718360830FC0CB010E94A6
:10233000B70F7C01009759F0A801BE010E94B311AC
:10234000CE010E944C10C70104C0CE0102C080E043
:1023500090E0CDB7DEB7EEE00C94990E81E090E00E
:10236000F8940C94C311FB01DC0102C001900D92A2
:1023700041505040D8F70895FB01DC0101900D92C7
:102380000020E1F7089510E0CAEDD0E004C0FE019E
:102390000E94D20E2196CB3DD107C9F7F894FFCF0A
:1023A0002002200200008802200000000000C2027B
:1023B0002F025A0209038B0269027D02000000000D
:1023C000CB032F028C048B04207C2000206D4C2F2B
:1023D00073656300204C2F6D696E00206D4C0054B6
:1023E000657374696E67000D0A00207365630000F1
:00000001FF
